:020000040800F2
:10000000000002206506000861060008455000084F
:100010006106000861060008610600080000000093
:100020000000000000000000000000006106000861
:10003000610600080000000061060008C94F0008C2
:1000400061060008610600086106000861060008F4
:1000500061060008610600086106000861060008E4
:10006000610600086106000861060008D14B00081F
:10007000DD4B000835390008E94B0008F54B000856
:1000800061060008014100086106000861060008D9
:1000900061060008610600086106000861060008A4
:1000A0006106000861060008610600086106000894
:1000B0006106000861060008610600083541000875
:1000C0006106000841410008610600084DDB000898
:1000D0006106000861060008610600086106000864
:1000E00061060008610600080000000061060008C3
:1000F0006106000861060008610600086106000844
:100100006106000861060008610600086106000833
:100110006106000861060008610600086106000823
:10012000610600086106000859DB00088DDB000845
:100130006106000861060008610600086106000803
:1001400000000000000000000000000000000000AF
:1001500061060008610600086106000861060008E3
:100160004D41000861060008D94F0008FD4F000806
:1001700061060008215000086106000861060008B9
:1001800061060008610600086106000861060008B3
:1001900061060008610600086106000861060008A3
:1001A0006106000861060008610600086106000893
:1001B000F1480008610600086106000861060008B1
:1001C0006106000861060008610600086106000873
:1001D0006106000861060008610600086106000863
:1001E0006106000861060008610600086106000853
:1001F0006106000861060008610600086106000843
:100200006106000861060008610600086106000832
:100210006106000861060008610600086106000822
:100220006106000861060008610600080000000081
:100230006106000861060008000000006106000871
:1002400061060008610600086106000861060008F2
:1002500061060008610600086106000861060008E2
:1002600061060008610600086106000861060008D2
:100270006106000861060008610600080000000031
:100280006106000861060008610600080000000021
:080290000000000061060008F7
:1002980010B5054C237833B9044B13B10448AFF3B8
:1002A80000800123237010BD00020024000000001C
:1002B800A804010808B5034B1BB103490348AFF371
:1002C800008008BD0000000004020024A804010802
:1002D800034613F8012B002AFBD1181A013870477E
:1002E80081F0004102E000BF83F0004330B54FEADF
:1002F80041044FEA430594EA050F08BF90EA020F4C
:100308001FBF54EA000C55EA020C7FEA645C7FEADE
:10031800655C00F0E2804FEA5454D4EB5555B8BF01
:100328006D420CDD2C4480EA020281EA030382EA72
:10033800000083EA010180EA020281EA0303362D04
:1003480088BF30BD11F0004F4FEA01314FF4801CD7
:100358004CEA113102D0404261EB410113F0004FE9
:100368004FEA03334CEA133302D0524263EB4303A0
:1003780094EA050F00F0A780A4F10104D5F1200E3E
:100388000DDB02FA0EFC22FA05F2801841F1000199
:1003980003FA0EF2801843FA05F359410EE0A5F16D
:1003A80020050EF1200E012A03FA0EFC28BF4CF09E
:1003B800020C43FA05F3C01851EBE37101F0004554
:1003C80007D54FF0000EDCF1000C7EEB00006EEB61
:1003D8000101B1F5801F1BD3B1F5001F0CD34908EB
:1003E8005FEA30004FEA3C0C04F101044FEA445242
:1003F80012F5800F80F09A80BCF1004F08BF5FEAC9
:10040800500C50F1000041EB045141EA050130BDA8
:100418005FEA4C0C404141EB0101013C28BFB1F5BA
:10042800801FE9D291F0000F04BF01460020B1FA05
:1004380081F308BF2033A3F10B03B3F120020CDAD8
:100448000C3208DD02F1140CC2F10C0201FA0CF0B6
:1004580021FA02F10CE002F11402D8BFC2F1200C1B
:1004680001FA02F120FA0CFCDCBF41EA0C019040D1
:10047800E41AA2BF01EB0451294330BD6FEA04041A
:100488001F3C1CDA0C340EDC04F11404C4F1200205
:1004980020FA04F001FA02F340EA030021FA04F317
:1004A80045EA030130BDC4F10C04C4F1200220FA6E
:1004B80002F001FA04F340EA0300294630BD21FAAC
:1004C80004F0294630BD94F0000F83F4801306BF72
:1004D80081F480110134013D4EE77FEA645C18BF66
:1004E8007FEA655C29D094EA050F08BF90EA020FFD
:1004F80005D054EA000C04BF1946104630BD91EAF5
:10050800030F1EBF0021002030BD5FEA545C05D1F7
:100518004000494128BF41F0004130BD14F5800436
:100528003CBF01F5801130BD01F0004545F0FE41AA
:1005380041F470014FF0000030BD7FEA645C1ABFDF
:10054800194610467FEA655C1CBF0B46024650EA16
:10055800013406BF52EA033591EA030F41F4002142
:1005680030BD00BF90F0000F04BF0021704730B5C8
:100578004FF4806404F132044FF000054FF000019D
:1005880050E700BF90F0000F04BF0021704730B55E
:100598004FF4806404F1320410F0004548BF404233
:1005A8004FF000013EE700BF42004FEAE2014FEA88
:1005B80031014FEA02701FBF12F07F4393F07F4F63
:1005C80081F06051704732F07F4208BF704793F066
:1005D8007F4F04BF41F40021704730B54FF4607479
:1005E80001F0004521F000411CE700BF50EA01027C
:1005F80008BF704730B54FF000050AE050EA010225
:1006080008BF704730B511F0004502D5404261EB94
:1006180041014FF4806404F132045FEA915C3FF4D5
:10062800D8AE4FF003025FEADC0C18BF03325FEA72
:10063800DC0C18BF033202EBDC02C2F1200300FA23
:1006480003FC20FA02F001FA03FE40EA0E0021FA48
:1006580002F11444BDE600BFFEE700BF0B480C4A98
:10066800904203D0121A0B490FF0E2F90A480B4ADC
:10067800904203D0121A00210FF0E8F904F0FEFEB0
:100688000FF0A2F900F060F8FEE700BF00000024B8
:1006980000020024C804010800020024E822002403
:1006A800704700BF704700BF704700BF704700BF6A
:1006B800F0B500F1080683B00660F9B104460846B3
:1006C8000D46FFF705FE0F28019005EB00070BD834
:1006D8003A46294630460EF079FE019B22680021F1
:1006E8006360D15403B0F0BD002201A920460EF08A
:1006F80037FE019B06462060A360E9E701480EF03B
:1007080025FE00BF48FD000830B587B0002501234D
:100718000446ADF80C108DF81410C1F307210561DB
:100728001A4603758583857700954FF0FF358DF858
:10073800151005999FED030A856102F023FE2046F6
:1007480007B030BD00000000F0B50021BF4801250A
:100758000024022604272DED028B8DB001F08AFCBF
:100768000421BA4801F002FC0421B84801F0DEFB7C
:10077800B64801F0F7FBB0EE408A4FF07C52B44B1C
:10078800B4481A601D710EF087FDB0EE480AB248F1
:100798000EF082FDB0EE480AB0480EF07DFD8DF8EF
:1007A8000D408DF80C60AE48039902F04FFE03230C
:1007B8008DF810408DF81130AA48049902F046FED1
:1007C8008DF814508DF81550A748059902F03EFE93
:1007D80007238DF818408DF81930A448069902F0BF
:1007E80035FE06238DF81C408DF81D30A04807996A
:1007F80002F02CFE8DF820608DF821509D48089954
:1008080002F024FE8DF824608DF8257009999A4825
:1008180002F01CFE05238DF828408DF829300A992E
:10082800964802F013FE8DF82C408DF82D700B9928
:10083800934802F00BFE934B2A46934819682346C7
:10084800009403F01FF9914B2A46914819682346F2
:10085800009403F017F98F4B2A468F4819682346EE
:10086800009403F00FF98D4B2A468D4819682346EA
:10087800009403F007F98B4B2A468B4819682346E6
:10088800009403F0FFF8894B2246894819683346DB
:10089800009403F0F7F8874B2246874819683346D7
:1008A800009403F0EFF8854B2246854819683346D3
:1008B800009403F0E7F8834A3346834811682246D8
:1008C800009403F0DFF83B46092265497F4802F0AF
:1008D800CBFD7E4802F0ACFF21466B4803F0C4F91B
:1008E80021466B4803F0C0F921466B4803F0BCF978
:1008F80021466B4803F0B8F921466B4803F0B4F978
:100908002946654803F0B0F92946674803F0ACF971
:1009180004F004FC00F5E17404F000FCA042FBD3F1
:1009280000215D4803F0A0F901215D4803F09CF91E
:1009380001215D4803F098F904F0F0FB00F5E1743B
:1009480004F0ECFBA042FBD30121534803F08CF9DF
:100958000121534803F088F90021534803F084F932
:1009680004F0DCFB00F5E17404F0D8FBA042FBD3F3
:100978000121494803F078F90121494803F074F945
:100988000121494803F070F904F0C8FB00F516741A
:1009980004F0C4FBA042FBD301213F4803F064F9F3
:1009A80001213F4803F060F901213F4803F05CF959
:1009B8000121354803F058F90121354803F054F96D
:1009C80004F0ACFB00F5487404F0A8FBA042FBD38C
:1009D80000212D4803F048F900212D4803F044F97F
:1009E80000212D4803F040F900212D4803F03CF97F
:1009F80000212D4803F038F904F090FB00F59674B7
:100A080004F08CFBA042FBD3294803F021F9304BBA
:100A18003049DA680870002A04DD92000021186A5B
:100A28000FF014F82C4BDA68002A04DD920000213C
:100A3800186A0FF00BF8294BDA68002A04DD9200D7
:100A48000021186A0FF002F825494BE0B004002491
:100A5800BC030024C4030024E0030024FC03002496
:100A6800F8020024090300241A0300242B0300249D
:100A78003C0300244D0300245E0300246F0300247C
:100A88008003002424000108A8030024280001088A
:100A9800940300242C0001081405002430000108E8
:100AA8000005002434000108EC040024200001089B
:100AB8009C04002438000108280500243C00010893
:100AC8003C0500244800010850050024C8040024FF
:100AD8001C020024980400245002002484020024EC
:100AE8000D1A0008014801F01DFAFEE7B0040024C1
:100AF80003787BB1036A10B40C68016904EB8202C5
:100B08005DF8044B03EB81018368126801330A60C6
:100B18008360704790F83130F7EE005A096807EEA5
:100B2800903A01EB8202591EF8EEE76A036A06EE74
:100B3800101A0169D2ED007AB8EEC66A03EB810398
:100B480085EEA65AD3ED006A85EE867A27EE057AF9
:100B580067EE277AE6EE877AC3ED007A704700BF22
:100B680030B50D461146427883B00446002A3AD182
:100B78002369D4E9082102EB830212682A60A2687B
:100B88008A4205DB0022E160227084F83120A260ED
:100B9800E27862B1627862B194F831200133012AB7
:100BA80063D0E26893FBF2F102FB1133236103B0D7
:100BB80030BDA28B632A1CD8218D0A4411B292B28F
:100BC80063292185217D05DD002957D10133643A48
:100BD800236122850029E4D0002BE26801DD9A42D6
:100BE800E0DC2261E3E71A46FFF782FF0123837006
:100BF800BEE7642A44D007EE902ADFED245A94ED2C
:100C08000B6AF7EE006AF8EE677A87EEA57AFCEED3
:100C1800C77ACDED017A9DF8042007EE902A84F872
:100C28003020F8EEE77A77EE677A77EE867AF4EE98
:100C3800E67AC4ED0B7AF1EE10FA12DBBCEEE77A35
:100C48008DED017A9DF8041007EE101A0A44B8EEEB
:100C5800C77AD1B20A4684F8301077EEC77AC4ED65
:100C68000B7A217D41B19B1AB6E7A26893FBF2F19A
:100C780002FB113323619AE7134492E7013BA6E78D
:100C8800227D0AB1013BA7E701338AE70000C84289
:100C980070B50D4682B0114642780446069E002A79
:100CA8003BD12369326AA16802EB830212682A6089
:100CB800626A914205DB0021E260217084F83110FC
:100CC800A160E27862B1627862B194F831200133B0
:100CD800012A63D0F26893FBF2F102FB113323611E
:100CE80002B070BDA28B632A1DD8218D0A4491B22F
:100CF80012B2632A2285227D05DD002A57D10133ED
:100D0800643923612185002AE4D0002B02DDE268E2
:100D18009A42DFDCF3682361E2E71A46FFF7E8FE50
:100D280001238370BDE7642A43D007EE902ADFEDE4
:100D3800245A94ED0B6AF7EE006AF8EE677A87EEAC
:100D4800A57AFCEEC77ACDED017A9DF8042007EE6E
:100D5800902A84F83020F8EEE77A77EE677A77EE13
:100D6800867AF4EEE67AC4ED0B7AF1EE10FA11DB2E
:100D7800BCEEE77A8DED017A9DF8041007EE101AA3
:100D88000A44B8EEC77AD2B284F8302077EEC77A30
:100D9800C4ED0B7A217D41B19B1AB6E7B26893FB8B
:100DA800F2F102FB113323619AE7134492E7013B06
:100DB800A6E7227D0AB1013BA7E701338AE700BF16
:100DC8000000C84270B50D4682B01146427804460C
:100DD800069E002A55D12369226AA16802EB830284
:100DE80012682A60626A914205DB0021E260217084
:100DF80084F83110A160B2780AB1A27852BBE278C7
:100E080062B1627862B194F831200133012A7AD054
:100E1800E26893FBF2F102FB1133236102B070BD6B
:100E2800A28B632A33D8218D0A4411B292B2632966
:100E38002185217D05DD00296ED10133643A2361C6
:100E480022850029E4D0002BE26801DD9A42E0DC2B
:100E58002261E3E796ED035AD4ED037AB28BB8EE3C
:100E6800C55BB8EEE74B07EE102AB8EEC76B84EE09
:100E7800057B27EE067BBCEEC77B17EE102AA28304
:100E8800BDE71A46FFF734FE01238370A3E7642AFF
:100E980044D007EE902ADFED245A94ED0B6AF7EE62
:100EA800006AF8EE677A87EEA57AFCEEC77ACDED90
:100EB800017A9DF8042007EE902A84F83020F8EE95
:100EC800E77A77EE677A77EE867AF4EEE67AC4ED1B
:100ED8000B7AF1EE10FA12DBBCEEE77A8DED017AAF
:100EE8009DF8041007EE101A0A44B8EEC77AD1B27A
:100EF8000A4684F8301077EEC77AC4ED0B7A217D64
:100F080041B19B1A9FE7A26893FBF2F102FB1133F0
:100F1800236183E713447BE7013B8FE7227D0AB116
:100F2800013B90E7013373E70000C84270B50446FF
:100F380082B0019102F05CFAA37A657CFF2B0CBFAA
:100F480001230023237420D03DB1267F002E5CD0DE
:100F5800A57F15B100230425A37704F0DFF8A36962
:100F6800C01AF92809D9A37C3BB1E37C2BB9227DAF
:100F78001AB1022D01D00125A374237C1A46002B37
:100F880039D12846637402B070BD05B3002504F05A
:100F9800C5F8DDED017AD4ED036AB8EEE77A07EE1D
:100FA800900AF8EE677A77EEE67AB4EEE77AF1EE31
:100FB80010FA28D5A27F32BB40F201100121237C10
:100FC800A08303206282A177637402B070BD0123FD
:100FD800A583A577237504F0A1F8A369C01AF92899
:100FE80002D8E37C03B9A57C0023E5741D46A374ED
:100FF800227C002AB1D0A37AFF2BC8D013462846FA
:10100800637402B070BD237CBBE704F087F8E57C0D
:10101800A06115B90123A374EAE702256682267543
:10102800E6E700BF2DE9F04F002183B0724802F0D7
:1010380015FCB0F5F85FDFF8F88180F0078201232E
:1010480088F8003007216C4802F014FC6B4B08212B
:10105800694883ED000A02F00DFC694D6FF4EE74E7
:10106800684B694883ED000A02F0F2FD287567486D
:1010780002F0EEFD664E0346664F6748337502F090
:10108800E7FD012138755C4802F0E8FBC0F38F13D7
:101098001A19462A10D947F23F7290427ED85F4A01
:1010A8005F4C02FB03F384FB0324DB17C3EBE4145C
:1010B80004F5C874A4B200E0642402214E48AC834D
:1010C80002F0CCFB6FF4EE71C0F38F135A18462A66
:1010D80010D947F23F7290424ED8504A504C02FB0A
:1010E80003F384FB0324DB17C3EBE41404F5C8748F
:1010F800A4B200E0642403213F48B48302F0AEFBAD
:101108006FF4EE72C0F38F139A18462A10D947F27B
:101118003F7290421ED8414A414C02FB03F384FBC4
:101128000324DB17C3EBE41404F5C874A4B200E08D
:1011380064244FF47A713B48BC83FFF7F7FEC0B2D2
:101148000138032800F24E84DFE810F076013F01F1
:1011580078003B00B0F5094FEBD36FF04A02A3F5D6
:10116800097302FB03F32E4ADC1782FB0312C4EB5C
:10117800E2146434A4B2DCE7B0F5094FBBD36FF0D6
:101188004A02A3F5097302FB03F3254ADC1782FB25
:101198000312C4EBE2146434A4B2ACE7B0F5094F0F
:1011A800C0F0AD826FF04A02A3F5097302FB03F3A6
:1011B8001B4ADC1782FB0312C4EBE2146434A4B2AA
:1011C8007BE7DFF870A00023DFF86CB08AF8003006
:1011D800154B1C78002C3CD046211448FFF7A6FE7E
:1011E800C0B20138032800F24281DFE810F035036D
:1011F800EA023701DC0200BFC8040024080000240A
:101208001C02002410000024280500243C050024AA
:10121800500200248402002450050024D4FEFFFF5D
:101228004520D744180400249804002438040024D6
:101238000C000024E8020024F00200240123DFF857
:10124800E8A2DFF8E8B28AF80030A44B1C78002C3A
:10125800C2D14FF41671A248FFF768FEC0B2022847
:1012680000F05383032800F02A83012800F08F83BD
:101278004FF416719B48FFF759FEC0B2022800F0E0
:101288007983032800F05783012800F047834FF43F
:1012980016719548FFF74AFEC0B2022800F07F8118
:1012A800032800F05D81012800F0FC829AF80030E4
:1012B80004218E48002B00F0E88002F0CFFAC0F33A
:1012C800871305218948009302F0C8FA0621C0F364
:1012D8008719864802F0C2FA8549C0F38714009B33
:1012E8000A780132D2B2032A0A70824A40F28F8108
:1012F80013700022804B0A7083F800907F4B1C709B
:101308001B78A34219D07E4BA4F2EE347D4803FB30
:1013180004F47D4B83FB042301222344E417A4EB4C
:1013280063247A4B04F5FA641A7007EE904AF8EED3
:10133800E77AC0ED037A0DF0CDFF98F80030012B65
:1013480000F0B880AB781BB1EB78002B40F0D0816F
:10135800B4781CB1F478002C40F0C381BA783AB163
:10136800FA782AB13A69B2F57A6FACBF0022012245
:10137800697829B9717819B97978002900F08581D7
:101388000121634802F070FC0021624802F06CFC05
:101398000021614802F068FC9BF80030002B40F007
:1013A8000B815E4B1C78002C00F08D819AF80010A0
:1013B80081F001015A4802F057FC9AF80010594888
:1013C80003B0BDE8F04F02F04FBCAB78002B40F003
:1013D8004F82DFF858B1B378A3B1337993B10021C4
:1013E800F26801238A4286F83110B16031613360B6
:1013F80003DD9200306A0EF029FB736AF360012363
:101408008BF80030BB78A3B13B7993B10021FA681F
:1014180001238A4287F83110B96039613B6003DDE6
:101428009200386A0EF012FB7B6AFB6001238BF88E
:101438000030DFF8F4A0CBE6384ADFF8F0B01378D4
:10144800DFF8E4A083F001031370C1E6B0F5614F43
:1014580034BF0323022388F80030F3E595F83130D0
:10146800013385F8313001236B702B71EB70462105
:101478001C48FFF75BFDC0B20138032861D8DFE8DC
:1014880010F0850166015700400102F0F3F90521CB
:10149800164885ED060A02F0EDF90621134886ED97
:1014A800060A02F0E7F998F8003087ED060A012BE2
:1014B8007FF448AFEB782BB12B69B3F57A6FACBFEB
:1014C80000230123F478002C3FF44AAF3469B4F5C3
:1014D8007A6FACBF0024012442E700BF98040024BF
:1014E800380400245804002478040024C804002484
:1014F80004000024F2020024F3020024F402002471
:1015080062F8FFFFFC030024614E4A82660500244E
:101518001405002400050024EC0400240500002420
:10152800A803002494030024E8020024F002002405
:1015380096F83130013386F83130012373703371F6
:10154800F3704621B248FFF7F1FCC0B20138032816
:101558003FF6ACAEDFE810F023000400F100E30032
:10156800BB78002B3FF4A2AE3B79002B3FF49EAE34
:101578000021FA6801238A4287F83110B96039617D
:101588003B6003DD9200386A0EF060FA7B6A002245
:10159800FB6001238BF800309E4B1A7086E698F8A2
:1015A8000030012B03D0BB78002B3FF47FAEFB78D3
:1015B80083F00103FB7079E60021974802F054FBA1
:1015C8000021964802F050FB954C0021954802F006
:1015D8004BFB0021944802F047FB237813F00105E8
:1015E80040F0E081042B2946904840F23E8102F009
:1015F8003BFB25708BF800508D4D03F08FFD2B6859
:10160800C01A962800F2D38103B0BDE8F08F127893
:101618009A4219D0874AA3F2EE33874802FB03F3B4
:10162800864A82FB03121A44DB17A3EB62230122CA
:1016380003F5FA6307EE903A814BF8EEE77A1A70F1
:10164800C0ED037A0DF046FE7E4B1B7899451AD003
:10165800784BA9F2EE397C4803FB09F9774B83FBF9
:10166800092301224B444FEAE979A9EB6329774B17
:1016780009F5FA691A7007EE909AF8EEE77AC0ED64
:10168800037A0DF027FE724B3AE643EA02016248FC
:10169800CDE9003202F0E8FA019A644844EA02010E
:1016A80002F0E2FA009B5D4843EA040102F0DCFA2A
:1016B8009BF8001000297FF47FAF664B1B78002B46
:1016C8007FF478AE01249AF80010564881F00101A1
:1016D80002F0CAFA2146544803B0BDE8F04F02F0C0
:1016E800C3BA3469B4F57A6FACBF0024012435E677
:1016F8002B69B3F57A6FACBF0023012328E60024D9
:10170800DBE47378002B3FF41CAF337823B100235C
:10171800B2683370C6E902320023737011E77B7830
:10172800002B3FF4C3AD3B7823B10023BA683B706C
:10173800C7E9023200237B70B8E597F831300133EE
:1017480087F8313001237B703B71FB70AEE5B378CD
:10175800002B3FF4F6AE3379002B3FF4F2AE0021B4
:10176800F26801238A4286F83110B1603161336032
:1017780003DD9200306A0EF069F9736A0022F360A3
:1017880001238BF80030314B1A70DAE698F80030F4
:10179800012B03D0B378002B3FF4D3AEF37883F05A
:1017A8000103F370CDE66B78002B3FF460AE2B7825
:1017B80023B10023AA682B70C5E9023200236B709D
:1017C80055E6AB78002B3FF452AE2B79002B3FF453
:1017D8004EAE0021EA6801238A4285F83110A960DB
:1017E80029612B6003DD9200286A0EF02FF96B6ADD
:1017F800EB6001238BF8003098F80030012B02D100
:101808000023F370FB700E4B00221A702FE600BF06
:10181800780400246605002414050024EC04002440
:10182800F1020024A80300249403002400050024E6
:10183800EC02002462F8FFFFC4030024614E4A82D0
:1018480064050024F3020024E00300246505002455
:10185800F402002405000024AB78002B3FF407AE07
:10186800EB7883F00103EB7001E602F0FDF9C3E6C3
:101878002B79002B3FF4ADAD0021EA6801238A42A1
:1018880085F83110A96029612B6003DD9200286A70
:101898000EF0DCF86B6ADFF864B1EB6001238BF8BB
:1018A800003098E57B78002B7FF43DAF97F8313016
:1018B800787001333871F87087F83130F6E4AB7816
:1018C800002B3FF4D5AC2B79002B3FF4D1ACEA6860
:1018D800012385F83140002AAC602C612B6004DDBF
:1018E80092002146286A0EF0B1F86B6AEB6001237A
:1018F8008BF8003098F80030012B02D10023F370E8
:10190800FB703B4B00221A70B2E4AB78002B3FF41B
:10191800AFACEB7883F00103EB70A9E47378002B8C
:1019280057D0337823B10023B2683370C6E9023246
:1019380000237370ABE4B378002B3FF4A8AC337981
:10194800002B3FF4A4AC0021F26801238A4286F8F8
:101958003110B1603161336003DD9200306A0EF0FE
:1019680075F8736A0022F36001238BF80030214B6D
:101978001A708CE498F80030012B03D0B378002B50
:101988003FF485ACF37883F00103F3707FE46B7860
:10199800B3B12B781BB1AB682C70C5E902430023A7
:1019A8006B7065E40121144802F05EF924E603F047
:1019B800B5FB237828600133237003B0BDE8F08FAE
:1019C80095F83130687001332871E87085F8313046
:1019D8004EE496F83130707001333071F07086F84B
:1019E800313054E4DFF814B0DFF814A0FFF7F0BB8F
:1019F800640500246505002400050024F002002485
:101A0800E80200242DE9F04F00238BB092460546EA
:101A18008B46059306930793FFF704FBBAF1000F73
:101A28005ED00024A34EDFF8C092DFF89082A24F68
:101A380023462A4605A99F48FFF792F899F80030EF
:101A4800012B00F0CC80022B00F099809B482346A4
:101A58002A4606A9FFF784F823462A4607A9964886
:101A6800FFF77EF8964B1B78002B40F09B80954B38
:101A78001B78002B40F0A180934B1B78002B40F083
:101A8800A780F278B17898F8020097F802C098F821
:101A9800033097F803E0002A40D000293ED099F897
:101AA8000020012A00F0AB80012210B10BB10232F4
:101AB800D2B2BCF1000F04D0BEF1000F01D0043245
:101AC800D2B2824B1B7873B12B6803EB84031A687C
:101AD800DBF8003003EB84031A600134A245A7D178
:101AE8000BB0BDE8F08F2B68014303EB8403D3F8F8
:101AF80000E04FF00003CDF820E009934FEA84039B
:101B080003D1BCF1000F00F08480013A062A1FD8E7
:101B1800DFE802F0C7BEB3AA9F0A820099F8002046
:101B2800012A72D00022C0E7F6EE006AD7ED067AE5
:101B380098ED067ADDED075A9DED066A67EEA67AFE
:101B480027EE267A67EEA57AE7EE067ACDED097AD2
:101B58005F4A08A95F4812680393026009AA0DF05A
:101B680031FB5D4A039BD2ED007ADBF8002077EE6B
:101B7800A77A134467EE807AC3ED007AADE723466F
:101B88002A4606A94D480096FFF71CF923462A461F
:101B980007A949480096FFF715F9494B1B78002B10
:101BA8003FF465AF05A94D480DF084FB454B8DED1D
:101BB800050A1B78002B3FF45FAF06A948480DF0D3
:101BC80079FB414B8DED060A1B78002B3FF459AF8A
:101BD80007A944480DF06EFB8DED070A51E723462F
:101BE8002A4606A935480096FFF752F823462A46A2
:101BF80007A931480096FFF74BF833E70022002B7E
:101C08003FF45AAF0232D2B256E70029F6D10A465B
:101C180057E7CDF824E09BE7B0EE087AD8ED065AEE
:101C2800D6ED066AD7ED064AC5EE877A9DED065AC7
:101C38009DED056AC6EE875AC4EE876A9DED077A60
:101C480067EE857AE5EE867AE6EE877ACDED097A53
:101C58007EE7F6EE006AD7ED067A96ED067ADDEDB8
:101C6800075A9DED056A69E7DDED077A97ED067A73
:101C780067EE877ACDED097A6AE7F6EE006AD8ED65
:101C8800067A96ED067ADDED065A9DED056A55E76A
:101C9800DDED067A98ED067A67EE877ACDED097A5A
:101CA80056E7DDED057A96ED067A67EE877ACDED93
:101CB800097A4DE71C020024840200245002002403
:101CC8006405002465050024660500240500002439
:101CD80008000024BC03002410000024C4030024CE
:101CE800E0030024FC0300240C0000242DE9F0414B
:101CF800654D0126654C642765486649FEF7D8FCA2
:101D08002A46214662480DF019FB63486349FEF7ED
:101D1800CFFC2A462146604800240DF00FFB60489E
:101D28002A4660490460446104620DF007FB2A46B4
:101D38005D495E480DF002FB2A465D495D480DF09D
:101D4800FDFA2A465A495C480DF0F8FA2A465849DD
:101D58005A480DF0F3FA4FF60B73594A4FF07E5E6E
:101D680058494FF0000C5848DFF8B481C2E90034F4
:101D7800C2E90244554AC1E90034C1E90244C2E952
:101D88000034C2E902445249524AC1E90034C1E967
:101D98000244C2E90034C2E902444F494F4AC1E94A
:101DA8000034C1E90244C2E900344D49C2E90244A1
:101DB8004C4AC1E90034C1E902441360D4604A4B7B
:101DC8004A49C0F818E0C0F82CC08460048504862D
:101DD800C761C0F82080C1F818E0C1F82CC09C6029
:101DE8008C600C850C86CF61C2E90144404AC0E989
:101DF8000064C0E90444C26042623E48CA604A6264
:101E08000862C3E90064C1E90064C1E90444DA6016
:101E18005A62394A394E1168394A30461C851C863F
:101E2800C3F818E0C3F82CC0DF611A62C3E90444A0
:101E3800344CFEF769FC2A4630462146324E0DF0F6
:101E48007DFA324B30461968FEF75EFC2A46214679
:101E580030460DF073FA2E4E2E4B30461968FEF7B9
:101E680053FC2A46214630460DF068FA2A4E2B4B81
:101E780030461968FEF748FC2A4621463046BDE838
:101E8800F0410DF05BBA00BF00000024DFF300084A
:101E9800B802002474FD0008D002002488FD000860
:101EA800B0040024A9060008AD060008BC030024FD
:101EB800B1060008C4030024E0030024FC03002446
:101EC80094030024A80300241C0200240005002415
:101ED800140500249C040024EC0400243C05002480
:101EE8002805002450050024840200245002002400
:101EF80000F22B0000C8AFC04000010818040024FD
:101F0800000000C0B5060008380400244400010899
:101F1800580400244C0001087804002450000108EB
:101F280000905FC1143001F003BA00BF38B500F16A
:101F3800140504462DED028B284601F0B5F9284614
:101F480001F0AEF92846B0EE408A01F097F9D0EDDD
:101F5800007AF8EE677A88EE277ABDEC028B84ED7A
:101F68000E7A38BD143001F09BB900BF38B500F1C6
:101F7800140504462DED028B284601F083F9284606
:101F880001F08EF92846B0EE408A01F077F9D0EDDD
:101F9800007AF8EE677A88EE277ABDEC028B84ED3A
:101FA8000E7A38BDF0B5032399B0002701251293A6
:101FB80006462C4B09A81595CDE90E7340F204533B
:101FC800ADF84030284BCDE91357099301F056FE80
:101FD80009A801F02FFF002835D1244B04AF04468F
:101FE8000090CDF842301023394604958DF8203002
:101FF8001F4BCDE91650CDE906506846059302F00F
:10200800A7F80823009A01A909A8ADF804508DF88B
:10201800064009940295039300F0E4F800230EA902
:1020280038463024049302F05BFE03224FF07E53BF
:1020380009A906F114000B93CDE90942049A01F0AD
:10204800EBF819B0F0BD40F60132084B169704AF13
:10205800ADF824200998CDF84230179500F082F8A1
:10206800DCE700BF040204040303000104060403C0
:102078000704010B2DE9F04304462DED028B83B0D4
:10208800002948D0012140F2011200230091ADF847
:1020980004208DF80630304A0126304B271D304980
:1020A80004F12908626040F20272A36040F60663F8
:1020B800E16004F125092682A4F8252084F8276028
:1020C800A4F8293084F82B6003F08EF96946054698
:1020D80048B304F130008DF8066003F0EDF8072DE1
:1020E80034D104F114052046FFF75CFF284601F0BF
:1020F800D7F82846B0EE408A01F0C0F8D0ED007A53
:10210800F8EE677A88EE277A84ED0E7A03B0BDEC94
:10211800028BBDE8F08340F2011300918DF80610A0
:10212800ADF80430B7E704F1300003F0C5F83946DC
:10213800204602F055FA484601F0A0FD404601F05D
:102148009DFD04F1120000F077F9CAE739462046F0
:1021580002F046FAC5E700BF0508050905070506A8
:10216800050A060610B584B003460124ADF804003C
:1021780003A8ADF80C30ADF80E4001F07FFD214604
:1021880003A801F065FE204602F0CAFF002103A85B
:1021980001F05EFE204602F0C3FF214603A801F0CD
:1021A80057FE04B010BD00BF10B5C2F3002384B0C1
:1021B8000C46017C8DF80D2043EA4402FA240223E0
:1021C8008DF80C2003AA009402F058F818B10124E5
:1021D800204604B010BD04460A2002F0A1FF2046A4
:1021E80004B010BD034670B543F8042B044684B010
:1021F80007C983E80700A37983B91A210B461E2271
:10220800FA2523742046ADF80C20022303AA009572
:1022180002F034F828B1012004B070BD1B210B4630
:10222800EDE70A2002F07CFF4FF4B8520095022334
:10223800ADF80C20204603AA217C02F01FF80028E4
:10224800E9D10A2002F06CFF41F2027200950223E4
:10225800ADF80C20204603AA217C02F00FF80028D4
:10226800D9D10A2002F05CFF042200950223ADF8C0
:102278000C20204603AA217C02F000F80028CAD1CD
:102288000A2002F04DFF062200950223ADF80C202B
:10229800204603AA217C01F0F1FF0028BBD10A20C7
:1022A80002F03EFF41F2082200950223ADF80C200F
:1022B800204603AA217C01F0E1FF0028ABD10A20C7
:1022C800064602F02DFF0095022303AA217C204632
:1022D800ADF80C6001F0D2FF00289CD1304602F026
:1022E8001FFF009522790C232046002A8DF80C3018
:1022F80003AA4FF0020314BF622142218DF80D108A
:10230800217C01F0BBFF002885D1304602F008FF90
:102318002279D4E902310B43DBB20AB943F0400316
:1023280062790AB143F020030E22FA258DF80D30A8
:102338002046009502238DF80C2003AA217C01F089
:102348009DFF00287FF467AF0A2002F0E9FE102203
:1023580000950223ADF80C20204603AA217C01F049
:102368008DFF00287FF457AF0A2002F0D9FE122112
:1023780000950223ADF80C1003AA217C204601F039
:102388007DFF00287FF447AF0A2002F0C9FE012232
:1023980009212046FFF708FF003818BF01203BE756
:1023A800F0B5102387B0234C012200250126002711
:1023B80002A920460195CDE902234FF48052CDE9C8
:1023C800046709F09BFD642003F0B4FA02A94FF4F6
:1023D80080522046CDE9046702261027CDE902671E
:1023E80009F08CFD0322102302A92046CDE902231F
:1023F80000230422CDE904234FF4805209F07EFD26
:1024080040F23223042202A9019310232046CDE989
:102418000223019A012305924FF48052049309F094
:102428006DFD40F60601204609F088FD284607B0F4
:10243800F0BD00BF700500241C4B00221C494FF062
:10244800400C30B5054689B00220596007219A60D2
:102458001A620124DA620A224FF4006EDC600692E6
:102468002022CDE9000104200821CDE90201032042
:102478001021CDE9040108206946C3E904024FF49C
:10248800C072181DC3E906C24FF48052C3E909E2BD
:1024980009F00AFD38B92846FFF782FF003818BF4F
:1024A800012009B030BD204609B030BD6C050024BC
:1024B80040410052614A0021D0B513688EB00A919C
:1024C800002B40F0B9805E4B01214FF683700C243D
:1024D80011600221D3F8D4200026032742F4805249
:1024E800C3F8D420D3F8D42002F480520092009A82
:1024F800D3F8E02042F01002C3F8E020D3F8E0203F
:1025080002F010020192019AD3F8E02042F0400252
:10251800C3F8E020D3F8E02002F040020292029AC9
:10252800D3F8E02042F00802C3F8E020D3F8E02016
:1025380002F008020392039AD3F8E02042F4807272
:10254800C3F8E020D3F8E02002F480720492049AE1
:10255800D3F8E02042F08002C3F8E020D3F8E0206E
:1025680002F080020592059AD3F8E02042F020029A
:10257800C3F8E020D3F8E02002F020020692069A81
:10258800D3F8E02042F00402C3F8E020D3F8E030AA
:102598000C9403F0040307930323079A0B93CDE9E4
:1025A800080108A9274805F04BF848F2371202231A
:1025B80008A925480C94CDE90823CDE90A6705F058
:1025C8003FF84CF20372022308A920480C94CDE985
:1025D8000823CDE90A6705F033F840F2FF620223C9
:1025E80008A91B480C94CDE90823CDE90A6705F032
:1025F80027F84FF60C72022308A916480C94CDE967
:102608000823CDE90A6705F01BF84FF63F020223BD
:1026180008A911480C94CDE90823CDE90A6705F00B
:102628000FF82022022308A90A480C94CDE90A676A
:10263800CDE9082305F004F80EB0D0BD68050024E4
:10264800004402580010025800180258000C0258A2
:1026580000200258001C0258001402582DE9F04FBF
:10266800DFF8108406460D46144608F114002DEDD7
:10267800028B89B000AF02F02BFCD8F8143073B38A
:10268800D8F81830D8F80490002B43690BBF4FF0E6
:10269800080A4FF0100A4FF0020B4FF0040BB9F183
:1026A800000F2AD0A200EA46012B02F1070222F00D
:1026B8000702ADEB020D6846ADEB020D694600F06E
:1026C8003F81022B00F0D680002B6FD02246C847EE
:1026D800D5462437BD46BDEC028BBDE8F08FD8F84F
:1026E8001830002BF5D0D8F804904FF0080A4FF0B6
:1026F800020B4369B9F1000FD4D1FB61D8F800305F
:10270800BB61002BE5D0D54802F054FC6B46BBF109
:10271800020F786108EE103AFB6900F083816A467F
:102728005146A2EBC40295466200EA46B2FBFBF2B0
:10273800AAEBC40085460AEB8200EE46F861ADEBD1
:10274800010DF8690EEB820CC7F810C0EC46ADEB32
:10275800010D00EB8201CCF80400CCF8081001EB65
:1027680082013869E946CCF80C1000EB8201CCF8FC
:1027780000A001EB8202C9E900E0C9E90212012BBD
:1027880000F06483022B00F06C82002B00F0808143
:10279800620849466046BB69984718EE103A2437E4
:1027A8009D46BD46BDEC028BBDE8F08F002C8DD058
:1027B8001A46D8ED0B6A9FEDB27A8446331D36F976
:1027C80022E00CF1080C07EE90EA33F922E002321D
:1027D800F8EEE77A944267EE877A67EEA67A4CEDD0
:1027E800027A07EE90EAF8EEE77A67EE877A67EE04
:1027F800A67A4CED017AE2D8F9612246C847984E8C
:10280800D8ED046A0020F9692B1D9FED9E7A9FED93
:102818009E6ADFED9E5A22E0F4EEC67AF1EE10FAD7
:10282800C0F2C88447F6FE72D1ED017A45F820203F
:1028380066EEA77AF4EEC77AF1EE10FA40F2F0806D
:10284800F4EEC67AF1EE10FAC0F2D58447F6FE72BD
:1028580043F820200230083184427FF639AFD1EDA9
:10286800007A66EEA77AF4EEC77AF1EE10FAD3D8BA
:102878003246D9E7002C3FF429AFD8ED0B6A8446DD
:102888009FED787A0022331D8E4656F822100CF1FF
:10289800080C07EE901A53F822100232F8EEE77A85
:1028A800944267EE877A67EEA67A4CED027A07EED5
:1028B800901AF8EEE77A67EE877A67EEA67A4CED1B
:1028C800017AE2D871462246C7F81CE0C847664E2E
:1028D800D8ED046A0020F9692B1D9FED6A7A9FEDF7
:1028E8006A6ADFF894C120E0F4EEC67AF1EE10FAD5
:1028F800C0F279843246D1ED017A45F8202066EE9F
:10290800A77AF4EEC77AF1EE10FA40F28780F4EE77
:10291800C67AF1EE10FAC0F25E84324643F82020FF
:102928000230083184427FF6D3AED1ED007A66EEEC
:10293800A77AF4EEC77AF1EE10FAD5D86246DAE74C
:10294800002C3FF4C3AED8ED0B6A86469FED477A5C
:102958004FF0000C331D56F82C200EF1080E82F4AF
:102968000002A2F5000207EE902A53F82C200CF181
:10297800020CF8EEE77A82F400026445A2F5000240
:1029880067EE877A67EEA67A4EED027A07EE902A0E
:10299800F8EEE77A67EE877A67EEA67A4EED017A67
:1029A800D9D8F9612246C847314ED8ED046A0020CB
:1029B800F9692B1D9FED337A9FED336ADFF8BCC0B0
:1029C8001FE0F4EEC67AF1EE10FAC0F2FC8332464C
:1029D800D1ED017A45F8202066EEA77AF4EEC77AA1
:1029E800F1EE10FA18D9F4EEC67AF1EE10FAC0F248
:1029F800DA83324643F820200230083184427FF6D9
:102A080067AED1ED007A66EEA77AF4EEC77AF1EEFA
:102A180010FAD6D86246DBE76246EBE762467DE706
:102A2800324615E7A100D6466208073121F00701B2
:102A3800ADEB010DEA46ADEB010D6946ADEB0E0DB0
:102A48000AEB8200EC46ADEB0E0D01EB8202F86159
:102A5800E946CCE900A0C9E9001290E6BC050024CB
:102A68000280FFFF000000300082FF7F000000347A
:102A780082FF7F00A4050024007E00807E0080FF86
:102A88000000003804FF7FBF04FF7F3F00FEFF46C1
:102A9800002C00F0C982BBF1020FD8F8202000F00A
:102AA800FA827969C7F8049002EB810E5FED0C5A3F
:102AB8008A00DCF808100EF104007A611A46DCF886
:102AC8000C303B61331DD7F810903D61FD69C7E9B3
:102AD80002CB8C46834636F92210D8ED0B7A06EEE7
:102AE800101A33F9221006EE901A3EF92210B8EEA9
:102AF800C66A07EE101AF8EEE66A3BF92210B8EE3D
:102B0800C77A26EE256A66EEA56A27EE257A26EEAE
:102B1800276A66EEA76A27EE277A07EE901A510809
:102B28000232F8EEE77A0AEB8100944280ED006AFF
:102B380005EB810067EEA57AC0ED006A0CEB810019
:102B480009EB810180ED007A98ED0B7A67EE877AC0
:102B5800C1ED007ABFD8D7F804903D69D7E902CB18
:102B680060466208BB6949469847D8F828307A69B0
:102B7800D8ED046A1A441FED3D7A1FED3D6A2B1DFE
:102B8800904602F1040A5FED3F5A0022A84ED9E9A7
:102B980000EC51E0F4EEC67AF1EE10FAC0F2C7820A
:102BA80047F6FE7045F822000CEB0100D0ED007AE4
:102BB80066EEA77AF4EEC77AF1EE10FA4BD9F4EE86
:102BC800C67AF1EE10FAC0F2BA8247F6FE70BBF18F
:102BD800020F43F822002BD0D9F808000844D0EDA2
:102BE800007A66EEA77AF4EEC77AF1EE10FA36D9D3
:102BF800F4EEC67AF1EE10FAC0F2CD8247F6FE7016
:102C080048F82200D9F80C000144D1ED007A66EEAC
:102C1800A77AF4EEC77AF1EE10FA1ED9F4EEC67A66
:102C2800F1EE10FAC0F2AF8247F6FE714AF82210B0
:102C3800023294427FF6B1AD51080EEB8100890053
:102C4800D0ED007A66EEA77AF4EEC77AF1EE10FAC4
:102C5800A0D83046A6E73046B9E73146E6E7304621
:102C6800CEE7002C00F0E081BBF1020FD8F820304D
:102C780000F0E1817A69DCF8081003EB820EC7F8EE
:102C880004909300DFED6B5A0EF1040000227B6183
:102C9800DCF80C303B61331DD7F810903D61FD69BD
:102CA800C7E902CB8C46834656F82210D8ED0B7A3A
:102CB80007EE101A53F82210B8EEC76A07EE101A7A
:102CC8005EF82210F8EEC76A07EE101A26EE256A9B
:102CD8005BF82210B8EEC77A66EEA56A26EE276A78
:102CE80027EE257A66EEA76A27EE277A07EE901A6E
:102CF80051080232F8EEE77A0AEB8100944280ED3F
:102D0800006A05EB810067EEA57AC0ED006A0CEB5E
:102D1800810009EB810180ED007A98ED0B7A67EE6E
:102D2800877AC1ED007ABFD8D7F804903D69D7E912
:102D380002CB60466208BB6949469847D8F82830F4
:102D48007A69D8ED046A1A449FED3E7A9FED3E6A8F
:102D5800131D9246DFF8E4C00022FB612B1D364E9E
:102D6800D9E9008E4EE0F4EEC67AF1EE10FAC0F220
:102D7800FC81304645F822000EEB0100D0ED007AC8
:102D880066EEA77AF4EEC77AF1EE10FA49D9F4EEB6
:102D9800C67AF1EE10FAC0F2EF813046BBF1020FAD
:102DA80043F822002AD0D9F808000844D0ED007A68
:102DB80066EEA77AF4EEC77AF1EE10FA35D9F4EE9A
:102DC800C67AF1EE10FAC0F2C98130464AF82200FC
:102DD800D9F80C000144D1ED007A66EEA77AF4EE3A
:102DE800C77AF1EE10FA1ED9F4EEC67AF1EE10FAAF
:102DF800C0F2AD813146F86940F82210023294429F
:102E08007FF6CBAC510808EB81008900D0ED007A41
:102E180066EEA77AF4EEC77AF1EE10FAA3D8604608
:102E2800A8E76046BAE76146E5E76046CEE700BF37
:102E38000280FFFF000000300082FF7F007E0080DC
:102E48000000003404FF7FBF04FF7F3F002C00F028
:102E5800EB807A690021D8F82030C7F8109003EB8E
:102E6800820ED7F81C909300FD610EF104021FED4D
:102E78000C6A7B61331D154656F821204808D8EDA9
:102E88000B6ABBF1020F82F40002A2F5000207EE02
:102E9800902A53F8212082F40002B8EEE77AA2F5CE
:102EA800000227EE067A07EE902A0AEB8002F8EE77
:102EB800E77A27EE267A67EE867A82ED007A09EBC2
:102EC80080024FEA800067EEA67AC2ED007A27D02A
:102ED8005EF8212082F40002A2F5000207EE902A93
:102EE80055F8212082F40002B8EEE77AA2F5000234
:102EF80027EE067A07EE902ADCF80820F8EEE77A43
:102F0800024427EE267A67EE867A82ED007A98EDFB
:102F18000B7ADCF80C2067EE877A0244C2ED007A5F
:102F280002318C42A8D8D7F8109060466208BB6975
:102F38004946FD699847D8F828307A69D8ED046A77
:102F48001A441FED407A1FED406A131D9246DFF8C0
:102F5800C4C20022FB612B1DAB4ED9E9008E4EE0A6
:102F6800F4EEC67AF1EE10FAC0F2C580304645F8A4
:102F780022000EEB0100D0ED007A66EEA77AF4EE9F
:102F8800C77AF1EE10FA49D9F4EEC67AF1EE10FAE2
:102F9800C0F2BF803046BBF1020F43F822002AD0AE
:102FA800D9F808000844D0ED007A66EEA77AF4EE66
:102FB800C77AF1EE10FA35D9F4EEC67AF1EE10FAC6
:102FC800C0F2AE8030464AF82200D9F80C0001441D
:102FD800D1ED007A66EEA77AF4EEC77AF1EE10FA30
:102FE8001ED9F4EEC67AF1EE10FAC0F28B803146A3
:102FF800F86940F82210023294427FF6CEAB5108AD
:1030080008EB81008900D0ED007A66EEA77AF4EE2D
:10301800C77AF1EE10FAA3D86046A8E76046BAE787
:103028006146E5E76046CEE7224649466046BB6909
:103038009847FFF7B2BBC7F810B0002298ED0B6AAB
:10304800331DDFED726AD7F81CB0786956F8221084
:1030580007EE901A53F82210B8EEE77A07EE901AA6
:1030680051080232F8EEE77A27EE267A0AEB810E4B
:1030780094420BEB810167EEA67A27EE067A67EE9B
:10308800867A8EED007AC1ED007ADFD88300D7F812
:1030980010B07B614DE61A46C7F810B098ED0B6A80
:1030A800331DDFED5B6AD7F81CB0786936F922105A
:1030B80007EE101A33F9221007EE901AB8EEC77A05
:1030C80051080232F8EEE77A27EE267A0AEB810EEB
:1030D80094420BEB810167EEA67A27EE067A67EE3B
:1030E800867A8EED007AC1ED007ADFD88300D7F8B2
:1030F80010B07B6134E5F0EE675AFEEEE45A15EE47
:10310800900A34E7F0EE675AFEEEE45A15EE901A8C
:103118006EE7F0EE675AFEEEE45A15EE900A3AE7CB
:10312800F0EE675AFEEEE45A15EE900A4BE767EEAA
:10313800A57AFDEEE77A17EE900A00B232E567EE5F
:10314800A57AFDEEE77A17EE900A00B23FE5F0EEB9
:10315800675AFEEEE05A15EE901A4CE6F0EE675A02
:10316800FEEEE05A15EE900A30E6F0EE675AFEEEF3
:10317800E05A15EE900AFDE5F0EE675AFEEEE05AC9
:1031880015EE900A0AE667EEA57AFDEEE77A17EEE5
:10319800901A09B24AE567EEA57AFDEEE77A17EECE
:1031A800900A00B22CE5F0EE675AFEEEE45A15EEEE
:1031B800902A1FE467EEA57AFDEEE77A17EE902ACB
:1031C80012B2FFF731BBF0EE675AFEEEE45A15EE85
:1031D800902AFFF7FDBBF0EE675AFEEEE05A15EEB7
:1031E800902AFFF79BBBF0EE675AFEEEE05A15EE09
:1031F800902AFFF780BB67EEA57AFDEEE77A17EE17
:10320800902A12B2FFF724BB82FF7F000000003033
:10321800000000387E0080FF30B5154C154685B09B
:10322800046004F1080C01AB07C98CE80700D4ED71
:10323800047AF5EEC07A83E80700F1EE10FA14DD9F
:10324800F7EE006A86EEA77A84ED0B7A6DB1204618
:1032580040F8145F01F03CFE064903690020064A65
:10326800E1616262E36005B030BD012005B030BDA8
:10327800A405002400200030000000300068083059
:10328800704700BFB1F5807F03680A4628BF4FF436
:103298008072B1F5807F9A6094BF0020012070474A
:1032A8000068143001F074BE70B504688AB06369B0
:1032B800E160CBB104F11405284601F009FE84460B
:1032C800EE46E668BCE80F00AEE80F00BCE80F0069
:1032D800AEE80F009CE803008EE803006946284624
:1032E800049601F0FDFCF8B9A069D8B104F11805FD
:1032F800284601F0EDFD8446EE46E468BCE80F0080
:10330800AEE80F00BCE80F00AEE80F009CE8030031
:103318008EE8030069462846049401F0E1FC003871
:1033280018BF01200AB070BD01200AB070BD00BFEF
:1033380030B5046883B00D46A3694BB1A36800207B
:10334800A26A216A9B00009004F1180001F0C2FDF6
:10335800A3680748626A9B00E169009004F11400C1
:1033680001F0B8FD0020C4E9005003B030BD00BF33
:1033780065260008024B0022C3E90522704700BFFA
:10338800A4050024F0B51D4683B004461646A5F1F1
:1033980001059DF82070ADF8041001F0BFFEB5FAE4
:1033A80085F50023BDF80420012F4FEA55156671F5
:1033B8002060E572E2802371A372237209D0022F84
:1033C8000FD00123A01D637203B0BDE8F04000F0E8
:1033D80055BC0223A01D637203B0BDE8F04000F0A5
:1033E8004DBCA01D637203B0BDE8F04000F046BCC0
:1033F80038B5044601F092FE002223682271834208
:1034080010D00122A57AE37A954020602271A01D90
:103418006DB243B900F00EFD40B22843C0B27F2818
:10342800A0720AD038BD00F005FDB0FA80F040095E
:103438002843C0B27F28A072F4D101F06FFE07EED6
:10344800900AF8EE677AC4ED037A38BD82B04FF07F
:10345800000C0323ADF80410BDF8042080F810C058
:103468000280438002B070472DE9F04FBE4E002520
:103478008FB0BE4C037006F14003426007460192CC
:103488008846202229463046C4F85831C4F8546189
:10349800CDE90355CDE90555CDE90755CDE90955E0
:1034A800CDE90B550CF0D2FA2022294604F5997083
:1034B800C4F82151C4F82551C4F82951C4F82D5134
:1034C8000CF0C4FA019B84F8385284F820317A68E9
:1034D800002A5FD02B464146B64604F590759946BA
:1034E8004FF0010A03EB0310D1F800B0D1F80480C3
:1034F8000133D1F808C02218CE6844F800B0C2F8E9
:103508000480C2F808C0D660087C2EF8029B1074AC
:103518000A7C05F8012F002A69D07A68113184F8ED
:1035280038A29A42DED84FF4802291489DF80430A0
:1035380008214FF000084FF00009C4F87431002347
:10354800C4E957020122C4F8643184F87031C4E92F
:103558005A2194F83812C4E9608981B3C4F88821E3
:10356800002284F8713184F878313B78C4E9632209
:10357800A3B3012200200121013B84F89421C4E96E
:103588006801082B2CD8DFE803F0ABB0B5BABFC48C
:10359800C9CFD6009DF804300121C4F86421C4F8CD
:1035A80074314FF4802384F87021714AC4E9572399
:1035B80008230022C4E95A130023C4E96023012325
:1035C800002284F87131002384F878310323C4F889
:1035D80088313B78C4E96322002BCAD184F894313E
:1035E800644802F0DFFD034638B1FFBEFEE77A68A3
:1035F80011319A423FF676AF95E703A95D480393E8
:1036080002F02EFF0546002868D1022240F2FF731F
:10361800CDE9082300230422CDE90A2394F82031B8
:10362800002B00F0D5804FF0060921E0022B00F0B6
:103638008980012B40F0C4809AF80130012B00F0FA
:10364800C180002B4C4B18BF002306A94948CDE97F
:10365800063902F0D3F9002840F0BF80013594F80C
:103668002031EDB2AB4240F2B380444B53F8259081
:103678002FB207EB071704EB070A504600F0FEFAD3
:1036880005EB051323441B7C042B7DDC022B00F384
:10369800918000F08D806319002283F81021E35D8A
:1036A800002BC3D19AF80130062B00F08580072B38
:1036B80000F08A80022B00F09680032B00F09580A2
:1036C800002B00F09680012B00F09180042B00F075
:1036D8009280052B2A4B18BF0023B6E7FFBEFEE7F2
:1036E80003224023C4E966237AE707226023C4E95A
:1036F800662375E70F228023C4E9662370E71F223B
:10370800A023C4E966236BE73F22C023C4E96623EC
:1037180066E77F22E023C4E9662361E7FF224FF4CE
:103728008073C4E966235BE740F2FF124FF490739D
:10373800C4E9662354E740F2FF324FF4A073C4E9AA
:1037480066234DE79AF80130042B37D0052B3DD07E
:10375800002B40D0012B42D0022B42D0032B094B27
:1037680018BF002371E700BF00400030D8050024CF
:1037780000200240340700240002B025540001084C
:103788000000B84F0020903603233E1D04EB0508C7
:103798004FF0000B264488F8103130460BF1010B2E
:1037A80000F06CFA98F8103104365B45F5DC76E7E2
:1037B8000123EAE70223E8E7104B46E7104B44E70A
:1037C800002342E70F4B40E70F4B3EE70F4B3CE728
:1037D8000FB0BDE8F08F0E4B37E7FFBEFEE70D4B8D
:1037E80033E70D4B31E70D4B2FE70D4B2DE70D4B15
:1037F8002BE70D4B29E70D4B27E700BF0800900C7E
:103808001000C0102000F0148000501D000180211D
:103818000004002A0008302E001060320040C03A30
:103828000080F03E00005247000021430000844B16
:1038380038B5094C40F2FF724FF0011104F5AE752E
:10384800284602F0BBFD94F82021D4F854112846EC
:10385800BDE8384002F026BBD8050024044B0F29E8
:10386800D3F8543198BF03EB41031888704700BF61
:10387800D8050024064B0F29D3F8543198BF03EB21
:1038880041031B8800EE103ABBEEC80A704700BF20
:10389800D8050024214B02689A4200D07047204A7C
:1038A80000232048D2F8D81030B51F4C41F0200131
:1038B80083B0C4F8C001092004F5E075C4E97103B8
:1038C8004FF48060C2F8D810D2F8D8204FF40061C5
:1038D800C4E9733094F8380202F02002C4F8D41115
:1038E8004FF40051984201922846C4F8D811C4E90F
:1038F8007833019B14BF00234FF48073C4F8DC3184
:1039080002F0D4FF08B1FFBEFEE704F5AE73C4F8B9
:10391800A851C4F8F83103B030BD00BF0020024000
:103928000044025840000240D8050024014803F032
:1039380035BB00BF9807002402682DE9F84F4B4BB0
:103948009A4201D0BDE8F88F494D95F83832002BDE
:10395800F8D095F82031002B77D0002405F10C0918
:1039680005F5997605F59077A04613E003F0010177
:1039780017F811BCA9F1080000F06AFABBF1010FB1
:1039880025D895F82031013409F111090236A2B27F
:1039980093422BD917F8012F002AF4D0D5F85431C7
:1039A8000021327833F81400D5F8583103EB0413AA
:1039B80023F81200338801339BB233805FFA83FA0D
:1039C8003A789A42D2D88A46A6F80080D0E7CAF355
:1039D8004001A9F1040000F03BFABBF1020FCAF361
:1039E8008001CED0484600F033FACAE7002395F8A4
:1039F8003802204909229842C5F8C8314FF480603E
:103A0800C5F8C011C5F8C4214FF400614FF4005245
:103A1800C5F8CC3108BF4FF48073C5F8D821C5E983
:103A2800740100221448C5E97732C5F8E42102F090
:103A38003DFF08B1FFBEFEE795F82021D5F85411E7
:103A48000E48BDE8F84F02F02DBA0A4909224FF492
:103A58008060C5F8C831C5E970124FF400614FF4B1
:103A68000052C5E97330C5E97512DAE70020024053
:103A7800D805002440000240980700243407002499
:103A8800704700BF10B592B0ADF804100180C9B2FC
:103A9800149C0B29C460C0E901233FD090F801C0F1
:103AA800BCF10F0F3AD8022A3FD0032A02D0012ACC
:103AB80000D000220E92012B02D0022B18BF002347
:103AC800022C0F932CD0032C2AD0012C28D00023B1
:103AD8000A29109327D85C4A02EB812202610A293D
:103AE80014D8DFE801F0A39587796B5D4F41332542
:103AF8000600564BD3F8E01041F48061C3F8E0109B
:103B0800D3F8E03003F480630C930C9B01230DA9D8
:103B1800104603FA0CF30D9303F092FD12B010BD9A
:103B28000A291094D7D90022D8E711220E92C2E7A9
:103B3800464BD3F8E01041F40071C3F8E010D3F815
:103B4800E03003F400730B930B9BDFE73F4BD3F894
:103B5800E01041F48071C3F8E010D3F8E03003F4CA
:103B680080730A930A9BD1E7384BD3F8E01041F0F1
:103B78008001C3F8E010D3F8E03003F08003099324
:103B8800099BC3E7314BD3F8E01041F04001C3F87B
:103B9800E010D3F8E03003F040030893089BB5E742
:103BA8002A4BD3F8E01041F02001C3F8E010D3F815
:103BB800E03003F020030793079BA7E7234BD3F8D4
:103BC800E01041F01001C3F8E010D3F8E03003F042
:103BD80010030693069B99E71C4BD3F8E01041F0BD
:103BE8000801C3F8E010D3F8E03003F008030593A8
:103BF800059B8BE7154BD3F8E01041F00401C3F89F
:103C0800E010D3F8E03003F004030493049B7DE74D
:103C18000E4BD3F8E01041F00201C3F8E010D3F8DE
:103C2800E03003F002030393039B6FE7074BD3F8DD
:103C3800E01041F00101C3F8E010D3F8E03003F0E0
:103C480001030293029B61E70000025800440258F6
:103C580008B5012143780069994089B203F0F8FE5C
:103C6800003818BF012008BD01230A4641780069C1
:103C780003FA01F189B203F0F1BE00BF8378022B89
:103C880030B504468FB037D0032B33D0012B31D059
:103C980000230A93E378012B2AD0022B28D0002393
:103CA8000B93002320460C9301F022FD0546204685
:103CB80001F026FD23780990082B13D8DFE803F0DC
:103CC8001F3245586B7E91A40500594BD3F8E0206C
:103CD80042F48072C3F8E020D3F8E03003F4807334
:103CE8000893089B09A9284603F0AAFC0FB030BD29
:103CF8000B93D6E70A93CDE711230A93CAE74C4BF7
:103D080009A92846D3F8E02042F00102C3F8E020D0
:103D1800D3F8E03003F001030093009B03F090FC1C
:103D28000FB030BD424B09A92846D3F8E02042F035
:103D38000202C3F8E020D3F8E03003F00203019355
:103D4800019B03F07DFC0FB030BD394B09A9284613
:103D5800D3F8E02042F00402C3F8E020D3F8E030C2
:103D680003F004030293029B03F06AFC0FB030BD1A
:103D78002F4B09A92846D3F8E02042F00802C3F8DF
:103D8800E020D3F8E03003F008030393039B03F02B
:103D980057FC0FB030BD264B09A92846D3F8E020C0
:103DA80042F01002C3F8E020D3F8E03003F010032B
:103DB8000493049B03F044FC0FB030BD1C4B09A9CD
:103DC8002846D3F8E02042F02002C3F8E020D3F8D8
:103DD800E03003F020030593059B03F031FC0FB09E
:103DE80030BD134B09A92846D3F8E02042F0400221
:103DF800C3F8E020D3F8E03003F040030693069BB5
:103E080003F01EFC0FB030BD094B09A92846D3F8B2
:103E1800E02042F08002C3F8E020D3F8E03003F05D
:103E280080030793079B03F00BFC0FB030BD00BF66
:103E38000044025838B5054601F05AFC04462846A5
:103E480001F05EFC01462046BDE8384003F000BEA4
:103E580070B506460D4601F04BFC0446304601F0AD
:103E68004FFC2A1E0146204618BF0122BDE87040BB
:103E780003F0F4BD0023122270B586B0CDE9022309
:103E880004930368032B01D804230593061D841D9E
:103E9800304601F02DFC0546304601F031FC034662
:103EA80001A92846019303F0CBFB204601F020FC32
:103EB800034620461C4601F023FC01A90346204680
:103EC800019303F0BDFB06B070BD00BF634A0368F1
:103ED800934210B58CB028D0614A934258D0614AB9
:103EE800934200F09480604A934201D00CB010BD18
:103EF8005E4C5F48D4F8E03043F00203C4F8E03089
:103F0800D4F8E03003F002030A930A9BFFF7B2FFEC
:103F1800D4F8F43043F08003C4F8F430D4F8F43023
:103F280003F080030B930B9BE0E7504C5148D4F807
:103F3800E03043F00203C4F8E030D4F8E03003F096
:103F480002030193019BFFF795FFD4F8E8300022A4
:103F58001F2043F400131146C4F8E830D4F8E830C1
:103F680003F400130293029BD4F8D83043F0010302
:103F7800C4F8D830D4F8D83003F001030393039B76
:103F880002F0E2FA1F200CB0BDE8104002F01ABBA4
:103F9800364C3948D4F8E03043F08003C4F8E030B8
:103FA800D4F8E03003F080030493049BD4F8E030A5
:103FB80043F00203C4F8E030D4F8E03003F0020321
:103FC8000593059BFFF756FFD4F8E830002221201F
:103FD80043F480031146C4F8E830D4F8E83003F419
:103FE80080030693069BD4F8D83043F00103C4F845
:103FF800D830D4F8D83003F001030793079B02F0B8
:10400800A3FA21200CB0BDE8104002F0DBBA1B482F
:10401800FFF730FF154B00224820D3F8E84011463F
:1040280044F40004C3F8E840D3F8E84004F400047A
:104038000894089CD3F8D84044F00104C3F8D84049
:10404800D3F8D83003F001030993099B02F07CFAF6
:1040580048200CB0BDE8104002F0B4BA005400404B
:1040680000580040005C0040001C00580044025802
:10407800A00A002418080024F0080024C809002415
:104088002DE9F0431A4B87B000254FF010099E46E2
:10409800EC46184BFF22E04667461A700EF11806E8
:1040A8000EF13004CDE90055CDE90255ADF8009088
:1040B800BCE80F00CDE90455AEE80F009CE803000A
:1040C8000095ADF800908EE80300B8E80F000FC621
:1040D8009CE803000095ADF8009086E803000FCF38
:1040E8000FC49CE8030084E8030007B0BDE8F08330
:1040F800140000241408002410B5EFF3108472B6DD
:10410800084B1A78120602D504B962B610BD1B789E
:10411800D82205485BB202FB0300143002F03EFFD0
:10412800F2E700BF1408002418080024014804F02E
:104138002DBB00BFA4080024014804F027BB00BF22
:104148007C090024014804F021BB00BF540A002464
:104158002DE9F0430F68D8243F4D85B007FB04F4E0
:10416800032F05EB0403036040DCCB680E46012BEC
:104178003CD84DD04FF0D808B646DFF8FC9008FB85
:104188000758BEE80F00C446ACE80F00DEF8003060
:104198000DF1100ECCF80030D8F808C099E80F00DF
:1041A8000EE90F000EEB8703BCF1010F53F8103C2A
:1041B800C8F88C3031D0BCF1020F42D0BCF1000FEE
:1041C80035D0317C8C34D823002201202C4403FBC9
:1041D80007534900C3E92602C3F894102046C3E9EF
:1041E8002822C3E92A2204F0C3F818B1012005B037
:1041F800BDE8F0830146204604F0D4FA0028F5D142
:104208000146204604F0F8FA003818BF0120EEE70E
:104218000B7C103B672BADD9E8E701F0E3F80F4BB7
:1042280098420CBF0E4B0F4BC8F89030C9E701F00D
:10423800D9F80A4B98420CBF0B4B0C4BC8F890307E
:10424800BFE701F0CFF8054B98420CBF084B094B6C
:10425800C8F89030B5E700BF18080024000E2707FB
:104268002D0FB0303211D0205F4390608A62E03069
:10427800200BA0101A09801028FD00082DE9F04134
:10428800D0F8008082B00D4617461E4608F18C040F
:10429800204604F083FA2028FAD1D8F80C3073B9F4
:1042A8006D002046089C33463A46A9B2009404F0B3
:1042B800B5F8003818BF012002B0BDE8F081089BAE
:1042C80032463946204604F07DF9F2E7044B1022C5
:1042D8001A7483F8E82083F8C02183F8982270477D
:1042E8001808002430B5002395B04FF480710622D9
:1042F80004460B9306921393CDE90C13CDE90E33C4
:10430800CDE9113301F070F807282BD004F110051E
:1043180041F2883206A9284605F080F828B1012321
:10432800184684F85C3015B030BD0222022306A975
:104338002846CDE9002310220123CDE902230022DB
:104348004FF48003CDE9042305224FF080730692D1
:104358006A460F9341F2883305F0CCF90028DED184
:1043680015B030BD0323012084F85C3015B030BD92
:1043780070B50023A4B04FF080724FF480750446E6
:10438800ADF806300D93CDE910320122CDE90E5378
:10439800CDE91223CDE91433002943D0F02300F1ED
:1043A800100508AEADF80630C02341F28832314618
:1043B8002846089305F032F828B10123184684F8F6
:1043C8005C3024B070BD41F288320DF106012846F8
:1043D80005F08EF803460028EFD105224FF48071CE
:1043E8001E93284616924FF080721B9321931F92BA
:1043F80002AA9FED1F7BCDE91C13CDE922338DED79
:10440800027B9FED1D7B41F2883316A98DED047B5D
:104418009FED1B7B8DED067B05F06CF90028CCD158
:1044280024B070BD00F1100508AE612341F2883256
:1044380031462846089304F0F1FF0028BDD141F227
:1044480088320DF10601284605F0D0F80028B4D1CD
:10445800BDF80630204623F0780343F04003ADF85A
:104468000630FFF73FFF00289ED0A6E7AFF3008095
:104478000000000001000000100000000100000022
:1044880000000000000040002DE9F04F00234FF429
:10449800807501264FF0807804462DED028BABB075
:1044A8008DF8073013932193299314950E96CDF820
:1044B8005C80CDE91533CDE91863CDE91A33CDE930
:1044C8002253CDE92433CDE9273306231C9300F08A
:1044D8008BFF072808D004F1100741F288321CA985
:1044E800384604F09BFF40B10123184684F85C303D
:1044F8002BB0BDEC028BBDE8F08F4FF0020A4FF0F5
:10450800020B4FF0050941F2883308AA1CA9384666
:10451800CDF89480CDF870909FED2D8BCDE908AB48
:104528004FF0000A4FF4800B8DED0A8BCDE90CABF0
:1045380005F0E0F80028D7D141F2883238460EA9B4
:1045480004F06CFF0028CFD1402341F288320DF1EE
:10455800070138468DF8073004F0CAFF0028C3D198
:1045680041F288330EA902AA3846CDF83890CDF822
:104578005C809FED197B8DED048BCDE906AB8DED4D
:10458800027B05F0B7F803460028ADD1CDF870904E
:104598004FF00109CDF894804FF00008219308AA44
:1045A80029931CA938462295CDE92333CDE9273331
:1045B80041F288338DED0A8BCDE90CABCDE9088942
:1045C80005F098F8002893D0304684F85C608FE7AF
:1045D8001000000001000000400000004000000042
:1045E8002DE9F043624CA3B00D46046000F0FCFED8
:1045F800072800F0A980286823466968AA6807C3C5
:104608001E46AB8926F8043B3046257B677B04F0C1
:10461800E7FEE0B9574B012D4FF00108E061236137
:1046280014BF4FF480134FF40003C4E9058893FACC
:10463800A3F3B3FA83F34FF48079013BC4F82490D1
:10464800C4E90B003046236204F05EFE38B1012253
:10465800134684F85C20184623B0BDE8F08366232F
:104668000B90139041F2883206A90693CDE90C907D
:10467800CDE90E00CDE91100304604F0CFFE002848
:10468800E5D1992341F2883206A93046069304F011
:10469800C5FE0028DBD105231C9019906A461493A7
:1046A8004FF08073219014A91D9341F288339FED38
:1046B8002A7BCDE91A90CDE91F008DED007B9FED97
:1046C800287B30468DED027B9FED277B8DED047BAB
:1046D80005F010F80028BAD129462046FFF748FE11
:1046E8000028B4D12046FFF7CFFE03460028AED1FC
:1046F800002FB0D1189330460027002606AA14A927
:10470800CDF86890CDE91F33EB2314934FF4406341
:104718001B934FF4005317934FF440431C93A0236B
:104728001693062319934FF0805321934FF040734B
:10473800CDE906671D9305F055F8034600288AD091
:10474800434684F85C8086E701230322184684F8F0
:104758005C2023B0BDE8F0830000000001000000E9
:1047680010000000010000000000000000004000F0
:10477800780B0024005000522DE9F04F8FB0414BC8
:104788000024026800AF9A427C63C7E90944C7E97C
:104798000B4403D03C37BD46BDE8F08F3A4B40F69A
:1047A80009213A48EB46D3F8D42007F11C0607F153
:1047B800220A4FF0020942F480424FF00308C3F87E
:1047C800D420D3F8D42002F48042BA60BA68D3F86F
:1047D800E02042F04002C3F8E020D3F8E02002F0E5
:1047E8004002FA60FA68D3F8E02042F02002C3F8E9
:1047F800E020D3F8E02002F020023A613A69D3F8C9
:10480800E02042F01002C3F8E020D3F8E02002F0E4
:1048180010027A617A69D3F8E02042F00202C3F804
:10482800E020D3F8E030F86103F002033984BB617B
:10483800174B7B60BB697B6853F8040F7B6000F003
:1048480057FF7B680546186800F05AFF16F8013BC9
:10485800786207F124012846C7F830807B63C7E9EE
:104868000A9402F0EDFE5645E5D100225C2011467F
:1048780001F06AFE5C2001F0A5FE3C37DD46BD462E
:10488800BDE8F08F00500052004402580A0A090996
:10489800D40B0024114B02689A4200D07047104A8A
:1048A80070B5D2F8D4300F4C23F4804304F11806C5
:1048B800C2F8D43054F8040F00F01AFF05462068F7
:1048C80000F01EFF0146284602F0FAFFB442F1D17B
:1048D8005C20BDE8704001F083BE00BF005000526C
:1048E80000440258D40B0024014805F007B800BF63
:1048F800880B0024084B1A1D981D03F1080110B4F9
:104908009C1C9A6603F10A02C3E91834C3E91B0127
:104918005DF8044B5A677047780B002438B5036874
:1049280071B9026A00F1280500F5AC74012A0CBFC0
:10493800002140218BBB1D4B5722C0F858310DE098
:10494800426A00F1C00500F5E874012A0CBF002195
:104958004021EBB1164B5A22C0F8D0310023204633
:10496800C4E901214FF480524FF4806163626261AF
:104978004FF48042C4E903314FF48073C4E906233D
:104988004FF40033236201F091FF58B1FFBEFEE7F8
:10499800084B5822C0F8D031E0E7074B5922C0F83D
:1049A8005831DBE7C5E92044A56338BD1000024053
:1049B8007000024028000240580002402DE9F043F0
:1049C800821D05468BB0031D05F10A010830CDE9AB
:1049D800052305F10C02AB69CDE907010992002B0B
:1049E8003DD0EB69B3FA83F84FEA58180123022245
:1049F80005AE0AAF4FF006090393CDE9012356F837
:104A0800044B2B792278934216D02B68F3B1012BF3
:104A180002D1F2B10A230493204600F071FE034646
:104A28002046009300F064FE694602F009FEBE428B
:104A3800E5D10BB0BDE8F083697963789942E4D198
:104A4800B8F1000FF3D02B68002BE0D1CDF810900F
:104A5800E2E76378022B14BF0A230823DBE74FF051
:104A68000108C3E7534A0368934230B505468BB043
:104A780055D02032934252D04F4A934204D020322C
:104A8800934201D00BB030BD4C4C4D48D4F8E030C7
:104A980043F00103C4F8E030D4F8E03003F0010338
:104AA8000593059BD4F8E03043F00803C4F8E030E0
:104AB800D4F8E03003F008030693069BD4F8E030FE
:104AC80043F04003C4F8E030D4F8E03003F040038A
:104AD8000793079BD4F8F03043F40003C4F8F03090
:104AE800D4F8F03003F400030893089BFFF766FF3F
:104AF800D4F8D830296843F001032F4A3048C4F865
:104B0800D830891AD4F8D83018BF012103F001032E
:104B18000993099B0BB0BDE83040FFF7FFBE274C57
:104B28002848D4F8E03043F00103C4F8E030D4F862
:104B3800E03003F001030093009BD4F8E03043F029
:104B48001003C4F8E030D4F8E03003F01003019308
:104B5800019BD4F8E03043F04003C4F8E030D4F8C7
:104B6800E03003F040030293029BD4F8F03043F4A2
:104B78008003C4F8F030D4F8F03003F480030393D2
:104B8800039BFFF71BFFD4F8D830296843F00103D3
:104B9800084A0C48C4F8D830891AD4F8D83018BF55
:104BA800012103F001030493049B0BB0BDE83040DE
:104BB800FFF7B4BE04580140045C014000440258A9
:104BC8004C0E0024F00B0024014802F0E7B900BFA6
:104BD800480D0024014802F0E1B900BFC00D0024CF
:104BE800014802F0DBB900BFA40F0024014802F01D
:104BF800D5B900BF1C1000241A4A0368934210B4A8
:104C08000BD02032934208D0174A934216D0203254
:104C1800934213D05DF8044B7047144B0022D3F82D
:104C28005442C3F85822002CF4D0D3F84802D3E9F0
:104C3800931223465DF8044B520818470B4B002289
:104C4800D3F8B044C3F8B424002CE3D0D3F8AC2490
:104C5800D3F8A814D3F8A404520823465DF8044BEB
:104C6800184700BF04580140045C0140F00B0024C1
:104C7800184A0368934210B40BD02032934208D0EC
:104C8800154A934217D02032934214D05DF8044B52
:104C98007047124BD3E994245208C3F85822002CC9
:104CA800F4D0D3E99201234601EB820100EB8200A4
:104CB8005DF8044B1847094BD3F8AC24D3F8B0443B
:104CC8005208C3F8B424002CE0D0D3F8A814D3F8C1
:104CD800A404E8E704580140045C0140F00B0024F8
:104CE8002DE9F04F0C684FF41776754F87B004FB29
:104CF80006F6012C07EB060AC0F800A000F3A08016
:104D08000D468E464FF00008D44669A3D3E9002328
:104D180069A1D1E90001CDE9022306ABCAF85082A6
:104D280003EB8403CDE9040153F810BC53F8083CA5
:104D3800CAE992880193BEE80F00ACE80F00BEE80C
:104D48000F00ACE80F00019B9EE80300CAF828B0EA
:104D5800CAF8C0308CE803002B69042B0CD8DFE8B4
:104D680003F0737D879103004FF41773554A03FBD3
:104D780004739A64C3F8E020AA692B6A002A43D016
:104D8800002B4FF4177308BF022203FB047318BFEC
:104D98000322DA6201221A63EA696B6A002A40D1A7
:104DA800191E4FF4177318BF012103FB0473C3E9DD
:104DB80031126B69022B05D8434A12F80380434A23
:104DC80052F823904FF4177306F1280042464946DB
:104DD80003FB04740023384463646363E365C4F825
:104DE800DC30C4F8CC30C4F8F430C4E90F33C4E97B
:104DF8001533C4E93533C4E93B33022306F0F2FD29
:104E0800002849D0FFBEFEE7191E4FF4177318BFDC
:104E1800012103FB0473C3E90B12EA696B6A002AD8
:104E2800BED0002B4FF4177308BF022203FB047394
:104E380018BF0322C3F8C4200122C3F8C820B8E76A
:104E4800012007B0BDE8F08F4FF417734FF4FA5202
:104E580003FB04739A64C3F8E0208DE74FF41773DB
:104E68004FF47A5203FB04739A64C3F8E02083E793
:104E78004FF417734FF4FA4203FB04739A64C3F8B0
:104E8800E02079E74FF417734BF6803203FB047385
:104E98009A64C3F8E0206FE706F1C0000223424697
:104EA8004946384406F09EFD0028CAD0FFBEFEE7FA
:104EB80004580140045C014024580140245C01402E
:104EC800F00B002400770100940001089800010805
:104ED8000068704770B5046882B015460E46C4F87D
:104EE8005032C4E99212069AC4F85422A269012ADF
:104EF80026D0626A012A9AB211D0294604F1C0006C
:104F0800019206F02BFE236A019A012B10D0294644
:104F180004F1280006F022FE002002B070BD04F162
:104F2800C000019206F0ACFE236A019A012BEED173
:104F3800314604F1280006F0A3FE002002B070BD3F
:104F4800226A012A9AB211D0294604F12800019256
:104F580006F004FE636A019A012B10D0294604F179
:104F6800C00006F0FBFD002002B070BD04F128006F
:104F7800019206F085FE636A019A012BEED1314653
:104F880004F1C00006F07CFE002002B070BD00BF36
:104F980003681B69042B05D8044A02EB830393EDCD
:104FA800000A70479FED020A704700BFA40001087D
:104FB80000803B470368D3F858027047704700BF2A
:104FC80008B500F0A5FCBDE8084001F085BB00BFAE
:104FD800064808B503680BB102F044FD04480368AD
:104FE8001BB1BDE8084003F033BC08BDB814002469
:104FF800B0100024064808B503680BB102F032FD72
:10500800044803681BB1BDE8084003F021BC08BD93
:10501800B8140024B0100024064808B503680BB182
:1050280002F020FD044803681BB1BDE8084003F006
:105038000FBC08BDB8140024B0100024364BDA6A3F
:10504800520062D59A6A9A6A9A6A9B6A180600D5CB
:1050580000BE314B9B6A990600D500BE2E4B9B6A59
:10506800DA0600D500BE2C4B9B6A1B0700D500BE94
:10507800294B9B6A980700D500BE274B9B6AD90726
:1050880000D500BE244B9B6A1A0400D500BE224BF3
:105098009B6A9B0400D500BE1F4B9B6AD80400D5B1
:1050A80000BE1D4B9B6A190500D500BE1A4B9B6AB2
:1050B8005A0500D500BE184B9B6A9B0500D500BE5B
:1050C800154B9B6AD80500D500BE134B9B6A990106
:1050D80000D500BE104B9B6ADA0100D500BE0E4B0E
:1050E8009B6A1B0300D500BE0B4B9B6A580300D577
:1050F80000BE094B9B6A990300D500BE064B9B6A0C
:10510800DA0306D400BE00BEFEE7DB6A9B07FAD5C9
:10511800F8E700BEF6E700BF00ED00E000F004BCD1
:1051280000F008BC2DE9F041CEB004464C22002125
:105138000AA80AF08BFC2022002102A80AF086FCAB
:10514800BC2200211EA80AF081FC022003F0F4FF13
:105158002368012B4FF0000354D0534A02250193D2
:10516800C820D16A514B21F00101D162D26A02F004
:10517800010201929A6942F440429A619B6903F4E0
:1051880040430193019B494A93699B04FCD54849D4
:105198000224002201268B6A04274FF0080823F016
:1051A800030323438B62052316900AA818934FF430
:1051B80080331096179419941597CDF86880CDE927
:1051C8001B222122CDE91344CDE90A2304F09EFCD9
:1051D80000B1FEE73F220323294602A8CDE90223B6
:1051E80000220823CDE9042340224023CDE90623E9
:1051F80040234FF48062CDE9082304F0B5FF03464D
:10520800B8B1FEE7294A04250093F0209169264B9E
:1052180041F440419161926902F440420092DA6A95
:1052280042F00102DA62DB6A03F001030093009B9B
:10523800A9E720224FF4805125934FF440152B9273
:1052480080222D931EA83093269135914FF48071BA
:10525800249234920C223394439140F227112092E5
:105268001022CDF884802A971F96CDE92E34CDE9F7
:105278003B334FF48033CDE92246319300244693E3
:105288000623CDE93E4527934FF48063094C2C93C0
:105298001E94CDE9281205F0A7F900B1FEE703F046
:1052A80071FF4EB0BDE8F081000400580048025874
:1052B800004402580F130F032DE9F0410D46044630
:1052C80084B0D1E9000184E8030000F0F1FAAE7976
:1052D8007EB36F4608F0A6FFFEF7D2FE08F0F2FB99
:1052E8002B79002B4ED16B799BB1BFF34F8FBFF356
:1052F8006F8F394B0022C3F85022BFF34F8FBFF393
:105308006F8F5A6942F400325A61BFF34F8FBFF36F
:105318006F8F0022002339463048CDE9002308F07A
:1053280015FF2E4808F074FF07F0FCFF04B0BDE835
:10533800F08120466F46FFF7F5FE012401F07AF967
:105348004FF040534FF4807838460193244BADF822
:105358000040CDE9023801F08BF919224FF04043A3
:1053680038468DF80F40ADF80D808DF801408DF866
:105378000A608DF80820019301F07AF9042001F001
:1053880067F9A7E7144C0023C4F88430BFF34F8FA4
:10539800D4F8803043F6E07EC3F3C906C3F34E3336
:1053A8004FEA431C0CEA0E00334640EA8372013B85
:1053B800C4F860225A1CF8D1ACF1200C1CF1200F63
:1053C800F0D1BFF34F8F636943F480336361BFF358
:1053D8004F8FBFF36F8F86E700ED00E0A810002421
:1053E8000E00010304F0F0BF1C4B9B6803F17842E8
:1053F800B2F5003F25D3B3F5803F20D303F16042D7
:10540800B2F5003F1FD303F15C42B2F5002F1CD365
:1054180003F17042B2F5902F19D303F14842B2F567
:10542800803F16D303F18042B2F1806F13D303F1AA
:10543800E043B3F5000F2CBF082007207047012078
:1054480070470020704702207047032070470420EF
:105458007047052070470620704700BF00ED00E048
:1054680003480023034A0449036009F067BF00BFEB
:10547800A810002400000024C54F000810B4204CD8
:105488000022204B83B0D4F888101F4841F47001E3
:10549800C4F8881019681D4C41F0010119601A619F
:1054A800196808401A4918609A61DA611A629A62A2
:1054B800DA621A635A639A63DA631A645A64186878
:1054C80020F4802018601A66D3F8DC2042F060428D
:1054D800C3F8DC20D3F8DC300193019B2368194022
:1054E800B1F1005F03D20B4B0122C3F80821044B32
:1054F8004FF000629A6003B05DF8044B704700BF3C
:1055080000ED00E0004402587FEDF6EA0010005C70
:105518000000FFFF0080005100F57171D0F804040D
:1055280007F0E8BAC1EBC10300EB8303D0F8040429
:10553800D3F8082207F00CBBC1EBC10300EB8303CF
:10554800D0F804049A6C07F041BB00BFD0F80404FB
:1055580007F0E0BBC16810B5044619B1022900D0B4
:10556800FEE70121D4F8040407F0BEFBD4F80404D4
:10557800BDE8104007F090BB10B50446D0F804040D
:1055880007F0B6FB2268D2F8003E43F00103C2F8E8
:10559800003E236A23B1034A136943F006031361EB
:1055A80010BD00BF00ED00E0D0F8040407F0AABB6E
:1055B800D0F8040407F0BEBBD0F8040407F0B8BB69
:1055C800D0F8040407F0B8BBD0F8040407F0B6BB61
:1055D8009446D0F898021A4608B5634603F09CFC36
:1055E800032802D8024B185C08BD022008BD00BF82
:1055F800C8000108D0F8980208B503F01BFD03287D
:1056080002D8024B185C08BD022008BDC80001087A
:10561800D0F8980208B503F051FD032802D8024BD0
:10562800185C08BD022008BDC80001080A06D0F8A9
:10563800983206D4C1EBC10103EB810191F8FE0158
:10564800704701F07F01C1EBC10103EB810191F8C3
:105658003E007047D0F8980208B503F047FC0328CD
:1056680002D8024B185C08BD022008BDC80001081A
:10567800D0F8980208B503F0B5FC032802D8024B0D
:10568800185C08BD022008BDC8000108D0F89802BF
:1056980008B503F07FFC032802D8024B185C08BD4C
:1056A800022008BDC8000108D0F8C00207F0F4BD08
:1056B800D0F8C00207F008BED0F8C00207F010BE4C
:1056C800704700BFD0F8C00207F0F6BDD0F8C0029E
:1056D80007F0F6BDD0F8D00308B502F083FD032823
:1056E80002D8024B185C08BD022008BDCC00010896
:1056F800024B027853F82200704700BFF0000108FF
:10570800024B427833F81200704700BFD0000108FE
:105718008CB00A2814D8DFE800F01523313F4D5B20
:105728006977859306004D4BD3F8E02042F48062F8
:10573800C3F8E020D3F8E03003F480630B930B9BAD
:105748000CB07047454BD3F8E02042F00102C3F893
:10575800E020D3F8E03003F001030193019BEFE769
:105768003E4BD3F8E02042F00202C3F8E020D3F821
:10577800E03003F002030293029BE1E7374BD3F8D2
:10578800E02042F00402C3F8E020D3F8E03003F050
:1057980004030393039BD3E7304BD3F8E02042F094
:1057A8000802C3F8E020D3F8E03003F008030493BC
:1057B800049BC5E7294BD3F8E02042F01002C3F858
:1057C800E020D3F8E03003F010030593059BB7E71A
:1057D800224BD3F8E02042F02002C3F8E020D3F8AF
:1057E800E03003F020030693069BA9E71B4BD3F890
:1057F800E02042F04002C3F8E020D3F8E03003F0A4
:1058080040030793079B9BE7144BD3F8E02042F033
:105818008002C3F8E020D3F8E03003F08003089357
:10582800089B8DE70D4BD3F8E02042F48072C3F853
:10583800E020D3F8E03003F480730993099B7FE7F5
:10584800064BD3F8E02042F40072C3F8E020D3F806
:10585800E03003F400730A930A9B71E7004402588E
:10586800704700BF0F4B1B780BB90120704710B56C
:1058780004464FF47A700C4AB0FBF3F31068B0FB9F
:10588800F3F000F0C1FE0F2C00D808B1012010BDC4
:10589800002221464FF0FF3000F056FE034B002057
:1058A8001C6010BD640000245C0000246800002413
:1058B80038B50320124D00F035FE124C04F0B4FB4D
:1058C800114A12499369C3F30323CB5C03F01F0306
:1058D80020FA03F30F202B60926902F00F028A5C12
:1058E80002F01F02D3402360FFF7BCFF10B1012470
:1058F800204638BD0446FFF7B3FF204638BD00BF39
:105908005C0000246000002400440258B80001082C
:10591800034A044B11681B780B441360704700BF9F
:105928007C17002464000024014B1868704700BFEE
:105938007C17002438B50446FFF7F6FF0546631CBC
:1059480002D0044B1B781C44FFF7EEFF431BA34215
:10595800FAD338BD64000024014B1868000C704766
:105968000010005C704700BF806B08B5FFF7FAFFB6
:1059780008BD00BF836B5A6D12F0500F5A6D10B5F9
:105988001DD1196842F400725A650A6812F0080FAE
:10599800CA681BD012F4406F0DD1CA6894040AD4A7
:1059A8005A6D22F480725A655A6DD10403D45A6D27
:1059B80042F001025A651846FDF7BEFF10BDD20637
:1059C8000AD4DB6CBDE81040DB6C18479007E7D0C1
:1059D8001846FDF7B1FFF1E71846FEF751F810BD7C
:1059E800806B08B5436D43F040034365836D43F016
:1059F80004038365FEF744F808BD00BFF0B5002234
:105A080083B0019290F85020012A00F01C810346CF
:105A180001201A6883F850009468640700F18A80AE
:105A28000C68C4F31305002D40F08F80C4F3846420
:105A3800A0404D684FF01F0ED6694FEA951C3043C1
:105A48000CF00C0CD06105F01F0002F13005844009
:105A58000EFA00FE5CF8050020EA0E0004434CF83C
:105A68000540906840076ED4956815F0080547D141
:105A78000C68072002F11406B94F4FEAD45CC4F34E
:105A880004540CF0040C00FA04FE886800FA04F4CC
:105A98005CF8060020EA0E0020434CF8060038683F
:105AA80000F07040B0F1805F00F0C580D068D66823
:105AB800C70600F1E880C6F382064869760000FA56
:105AC80006F60F69042F00F0C18002F1600408682F
